{
  "_format": "hh-sol-artifact-1",
  "contractName": "LimitWallet",
  "sourceName": "contracts/LimitWallet.sol",
  "abi": [
    {
      "inputs": [],
      "stateMutability": "nonpayable",
      "type": "constructor"
    },
    {
      "anonymous": false,
      "inputs": [
        {
          "indexed": true,
          "internalType": "address",
          "name": "spender",
          "type": "address"
        },
        {
          "indexed": false,
          "internalType": "uint256",
          "name": "limit",
          "type": "uint256"
        }
      ],
      "name": "LimitSet",
      "type": "event"
    },
    {
      "anonymous": false,
      "inputs": [
        {
          "indexed": true,
          "internalType": "address",
          "name": "spender",
          "type": "address"
        },
        {
          "indexed": true,
          "internalType": "address",
          "name": "recipient",
          "type": "address"
        },
        {
          "indexed": false,
          "internalType": "uint256",
          "name": "amount",
          "type": "uint256"
        }
      ],
      "name": "Spent",
      "type": "event"
    },
    {
      "inputs": [
        {
          "internalType": "address",
          "name": "spender",
          "type": "address"
        }
      ],
      "name": "getLimit",
      "outputs": [
        {
          "internalType": "uint256",
          "name": "",
          "type": "uint256"
        }
      ],
      "stateMutability": "view",
      "type": "function"
    },
    {
      "inputs": [],
      "name": "owner",
      "outputs": [
        {
          "internalType": "address",
          "name": "",
          "type": "address"
        }
      ],
      "stateMutability": "view",
      "type": "function"
    },
    {
      "inputs": [
        {
          "internalType": "address",
          "name": "spender",
          "type": "address"
        },
        {
          "internalType": "uint256",
          "name": "limit",
          "type": "uint256"
        }
      ],
      "name": "setLimit",
      "outputs": [],
      "stateMutability": "nonpayable",
      "type": "function"
    },
    {
      "inputs": [
        {
          "internalType": "address payable",
          "name": "recipient",
          "type": "address"
        },
        {
          "internalType": "uint256",
          "name": "amount",
          "type": "uint256"
        }
      ],
      "name": "spend",
      "outputs": [],
      "stateMutability": "nonpayable",
      "type": "function"
    },
    {
      "inputs": [
        {
          "internalType": "address",
          "name": "",
          "type": "address"
        }
      ],
      "name": "spendingLimits",
      "outputs": [
        {
          "internalType": "uint256",
          "name": "",
          "type": "uint256"
        }
      ],
      "stateMutability": "view",
      "type": "function"
    }
  ],
  "bytecode": "0x608060405234801561001057600080fd5b50600080546001600160a01b03191633179055610384806100326000396000f3fe608060405234801561001057600080fd5b50600436106100575760003560e01c80631ce28e721461005c57806336db43b514610098578063658c820a146100ad5780638da5cb5b146100cd578063af7d6ca3146100f8575b600080fd5b61008561006a3660046102d9565b6001600160a01b031660009081526001602052604090205490565b6040519081526020015b60405180910390f35b6100ab6100a63660046102fd565b61010b565b005b6100856100bb3660046102d9565b60016020526000908152604090205481565b6000546100e0906001600160a01b031681565b6040516001600160a01b03909116815260200161008f565b6100ab6101063660046102fd565b6101c3565b6000546001600160a01b0316331461016a5760405162461bcd60e51b815260206004820152601960248201527f4f6e6c79206f776e65722063616e20736574206c696d6974730000000000000060448201526064015b60405180910390fd5b6001600160a01b03821660008181526001602052604090819020839055517f7c58a37f777debac83af499c37671e7cae62b9f980fc308c95593364b228c0f4906101b79084815260200190565b60405180910390a25050565b336000908152600160205260409020548110156102225760405162461bcd60e51b815260206004820152601760248201527f5370656e64696e67206c696d69742065786365656465640000000000000000006044820152606401610161565b3360009081526001602052604081208054839290610241908490610329565b90915550506040516001600160a01b0383169082156108fc029083906000818181858888f1935050505015801561027c573d6000803e3d6000fd5b506040518181526001600160a01b0383169033907fc18352ae46a2296c951b2256c5ebc5b4546e6222fea2e4f36e824db9d44eb7ec9060200160405180910390a35050565b6001600160a01b03811681146102d657600080fd5b50565b6000602082840312156102eb57600080fd5b81356102f6816102c1565b9392505050565b6000806040838503121561031057600080fd5b823561031b816102c1565b946020939093013593505050565b60008282101561034957634e487b7160e01b600052601160045260246000fd5b50039056fea26469706673582212202d1b11d9f6abb5494214678af56b53d88aeb9f9a9968acc9ce316cba2aae24c464736f6c63430008090033",
  "linkReferences": {},
  "deployedLinkReferences": {}
}