{
  "_format": "hh-sol-artifact-1",
  "contractName": "Wallet",
  "sourceName": "contracts/Wallet.sol",
  "abi": [
    {
      "inputs": [],
      "stateMutability": "nonpayable",
      "type": "constructor"
    },
    {
      "inputs": [],
      "name": "deposit",
      "outputs": [],
      "stateMutability": "payable",
      "type": "function"
    },
    {
      "inputs": [],
      "name": "getBalance",
      "outputs": [
        {
          "internalType": "uint256",
          "name": "",
          "type": "uint256"
        }
      ],
      "stateMutability": "view",
      "type": "function"
    },
    {
      "inputs": [
        {
          "internalType": "uint256",
          "name": "amount",
          "type": "uint256"
        }
      ],
      "name": "withdraw",
      "outputs": [],
      "stateMutability": "nonpayable",
      "type": "function"
    }
  ],
  "bytecode": "0x608060405234801561001057600080fd5b50600080546001600160a01b031916331790556101a1806100326000396000f3fe6080604052600436106100345760003560e01c806312065fe0146100395780632e1a7d4d14610059578063d0e30db014610079575b600080fd5b34801561004557600080fd5b504760405190815260200160405180910390f35b34801561006557600080fd5b50610079610074366004610152565b61007b565b005b6000546001600160a01b031633146100da5760405162461bcd60e51b815260206004820152601d60248201527f4f6e6c79206f776e65722063616e2077697468647261772066756e647300000060448201526064015b60405180910390fd5b804710156101215760405162461bcd60e51b8152602060048201526014602482015273496e73756666696369656e742062616c616e636560601b60448201526064016100d1565b604051339082156108fc029083906000818181858888f1935050505015801561014e573d6000803e3d6000fd5b5050565b60006020828403121561016457600080fd5b503591905056fea2646970667358221220e2ba0fad5a1e3f92ac09a47cd142badcbb1aa9f22099b71b45dc017eaf86024564736f6c63430008090033",
  "linkReferences": {},
  "deployedLinkReferences": {}
}