{
  "_format": "hh-sol-artifact-1",
  "contractName": "MultiSigWallet",
  "sourceName": "contracts/MultiSigWallet.sol",
  "abi": [
    {
      "inputs": [
        {
          "internalType": "address[]",
          "name": "_owners",
          "type": "address[]"
        },
        {
          "internalType": "uint256",
          "name": "_required",
          "type": "uint256"
        }
      ],
      "stateMutability": "payable",
      "type": "constructor"
    },
    {
      "anonymous": false,
      "inputs": [
        {
          "indexed": true,
          "internalType": "address",
          "name": "sender",
          "type": "address"
        },
        {
          "indexed": false,
          "internalType": "uint256",
          "name": "amount",
          "type": "uint256"
        }
      ],
      "name": "Deposit",
      "type": "event"
    },
    {
      "anonymous": false,
      "inputs": [
        {
          "indexed": true,
          "internalType": "address",
          "name": "newOwner",
          "type": "address"
        }
      ],
      "name": "OwnerAdded",
      "type": "event"
    },
    {
      "anonymous": false,
      "inputs": [
        {
          "indexed": true,
          "internalType": "address",
          "name": "oldOwner",
          "type": "address"
        }
      ],
      "name": "OwnerRemoved",
      "type": "event"
    },
    {
      "anonymous": false,
      "inputs": [
        {
          "indexed": false,
          "internalType": "uint256",
          "name": "required",
          "type": "uint256"
        }
      ],
      "name": "RequirementChanged",
      "type": "event"
    },
    {
      "anonymous": false,
      "inputs": [
        {
          "indexed": true,
          "internalType": "address",
          "name": "receiver",
          "type": "address"
        },
        {
          "indexed": false,
          "internalType": "uint256",
          "name": "amount",
          "type": "uint256"
        }
      ],
      "name": "Transfer",
      "type": "event"
    },
    {
      "inputs": [
        {
          "internalType": "address",
          "name": "newOwner",
          "type": "address"
        }
      ],
      "name": "addOwner",
      "outputs": [],
      "stateMutability": "nonpayable",
      "type": "function"
    },
    {
      "inputs": [
        {
          "internalType": "uint256",
          "name": "_required",
          "type": "uint256"
        }
      ],
      "name": "changeRequirement",
      "outputs": [],
      "stateMutability": "nonpayable",
      "type": "function"
    },
    {
      "inputs": [],
      "name": "deposit",
      "outputs": [],
      "stateMutability": "payable",
      "type": "function"
    },
    {
      "inputs": [
        {
          "internalType": "address",
          "name": "",
          "type": "address"
        }
      ],
      "name": "isConfirmed",
      "outputs": [
        {
          "internalType": "bool",
          "name": "",
          "type": "bool"
        }
      ],
      "stateMutability": "view",
      "type": "function"
    },
    {
      "inputs": [
        {
          "internalType": "address",
          "name": "",
          "type": "address"
        }
      ],
      "name": "isOwner",
      "outputs": [
        {
          "internalType": "bool",
          "name": "",
          "type": "bool"
        }
      ],
      "stateMutability": "view",
      "type": "function"
    },
    {
      "inputs": [],
      "name": "numOwners",
      "outputs": [
        {
          "internalType": "uint256",
          "name": "",
          "type": "uint256"
        }
      ],
      "stateMutability": "view",
      "type": "function"
    },
    {
      "inputs": [
        {
          "internalType": "uint256",
          "name": "",
          "type": "uint256"
        }
      ],
      "name": "owners",
      "outputs": [
        {
          "internalType": "address",
          "name": "",
          "type": "address"
        }
      ],
      "stateMutability": "view",
      "type": "function"
    },
    {
      "inputs": [
        {
          "internalType": "address",
          "name": "oldOwner",
          "type": "address"
        }
      ],
      "name": "removeOwner",
      "outputs": [],
      "stateMutability": "nonpayable",
      "type": "function"
    },
    {
      "inputs": [],
      "name": "required",
      "outputs": [
        {
          "internalType": "uint256",
          "name": "",
          "type": "uint256"
        }
      ],
      "stateMutability": "view",
      "type": "function"
    },
    {
      "inputs": [
        {
          "internalType": "address payable",
          "name": "receiver",
          "type": "address"
        },
        {
          "internalType": "uint256",
          "name": "amount",
          "type": "uint256"
        }
      ],
      "name": "transfer",
      "outputs": [],
      "stateMutability": "nonpayable",
      "type": "function"
    }
  ],
  "bytecode": "0x608060405260405162000fae38038062000fae833981016040819052620000269162000365565b60008251116200006f5760405162461bcd60e51b815260206004820152600f60248201526e13dddb995c9cc81c995c5d5a5c9959608a1b60448201526064015b60405180910390fd5b60008111801562000081575081518111155b620000cf5760405162461bcd60e51b815260206004820152601360248201527f496e76616c696420726571756972656d656e7400000000000000000000000000604482015260640162000066565b60005b8251811015620001f95760026000848381518110620000f557620000f56200043f565b6020908102919091018101516001600160a01b031682528101919091526040016000205460ff1615801562000159575060006001600160a01b03168382815181106200014557620001456200043f565b60200260200101516001600160a01b031614155b620001975760405162461bcd60e51b815260206004820152600d60248201526c24b73b30b634b21037bbb732b960991b604482015260640162000066565b600160026000858481518110620001b257620001b26200043f565b6020908102919091018101516001600160a01b03168252810191909152604001600020805460ff191691151591909117905580620001f08162000455565b915050620000d2565b5081516000819055600182905562000219906004906020850190620002b1565b507facbdb084c721332ac59f9b8e392196c9eb0e4932862da8eb9beaf0dad4f550da6001546040516200024e91815260200190565b60405180910390a1816000815181106200026c576200026c6200043f565b60200260200101516001600160a01b03167f994a936646fe87ffe4f1e469d3d6aa417d6b855598397f323de5b449f765f0c360405160405180910390a250506200047f565b82805482825590600052602060002090810192821562000309579160200282015b828111156200030957825182546001600160a01b0319166001600160a01b03909116178255602090920191600190910190620002d2565b50620003179291506200031b565b5090565b5b808211156200031757600081556001016200031c565b634e487b7160e01b600052604160045260246000fd5b80516001600160a01b03811681146200036057600080fd5b919050565b600080604083850312156200037957600080fd5b82516001600160401b03808211156200039157600080fd5b818501915085601f830112620003a657600080fd5b8151602082821115620003bd57620003bd62000332565b8160051b604051601f19603f83011681018181108682111715620003e557620003e562000332565b6040529283528183019350848101820192898411156200040457600080fd5b948201945b838610156200042d576200041d8662000348565b8552948201949382019362000409565b97909101519698969750505050505050565b634e487b7160e01b600052603260045260246000fd5b60006000198214156200047857634e487b7160e01b600052601160045260246000fd5b5060010190565b610b1f806200048f6000396000f3fe6080604052600436106100915760003560e01c806387ab18e11161005957806387ab18e114610185578063a9059cbb146101a9578063ba51a6df146101c9578063d0e30db0146101e9578063dc8452cd146101f157600080fd5b8063025e7c2714610096578063173825d9146100d357806318e4ac35146100f55780632f54bf6e146101355780637065cb4814610165575b600080fd5b3480156100a257600080fd5b506100b66100b13660046109b9565b610207565b6040516001600160a01b0390911681526020015b60405180910390f35b3480156100df57600080fd5b506100f36100ee3660046109ea565b610231565b005b34801561010157600080fd5b506101256101103660046109ea565b60036020526000908152604090205460ff1681565b60405190151581526020016100ca565b34801561014157600080fd5b506101256101503660046109ea565b60026020526000908152604090205460ff1681565b34801561017157600080fd5b506100f36101803660046109ea565b6104c5565b34801561019157600080fd5b5061019b60005481565b6040519081526020016100ca565b3480156101b557600080fd5b506100f36101c4366004610a0e565b61060e565b3480156101d557600080fd5b506100f36101e43660046109b9565b610836565b6100f36108f4565b3480156101fd57600080fd5b5061019b60015481565b6004818154811061021757600080fd5b6000918252602090912001546001600160a01b0316905081565b3360009081526002602052604090205460ff166102695760405162461bcd60e51b815260040161026090610a3a565b60405180910390fd5b6001600160a01b03811660009081526002602052604090205460ff166102c15760405162461bcd60e51b815260206004820152600d60248201526c24b73b30b634b21037bbb732b960991b6044820152606401610260565b6001546000541161030a5760405162461bcd60e51b815260206004820152601360248201527221b0b73737ba103932b6b7bb329037bbb732b960691b6044820152606401610260565b6001600160a01b0381166000908152600260205260408120805460ff191690558054908061033783610a74565b919050555060005b60045481101561044557816001600160a01b03166004828154811061036657610366610a8b565b6000918252602090912001546001600160a01b03161415610433576004805461039190600190610aa1565b815481106103a1576103a1610a8b565b600091825260209091200154600480546001600160a01b0390921691839081106103cd576103cd610a8b565b9060005260206000200160006101000a8154816001600160a01b0302191690836001600160a01b03160217905550600480548061040c5761040c610ab8565b600082815260209020810160001990810180546001600160a01b0319169055019055610445565b8061043d81610ace565b91505061033f565b50600054600154111561048e5760005460018190556040519081527facbdb084c721332ac59f9b8e392196c9eb0e4932862da8eb9beaf0dad4f550da9060200160405180910390a15b6040516001600160a01b038216907f58619076adf5bb0943d100ef88d52d7c3fd691b19d3a9071b555b651fbf418da90600090a250565b3360009081526002602052604090205460ff166104f45760405162461bcd60e51b815260040161026090610a3a565b6001600160a01b03811660009081526002602052604090205460ff1615801561052557506001600160a01b03811615155b6105615760405162461bcd60e51b815260206004820152600d60248201526c24b73b30b634b21037bbb732b960991b6044820152606401610260565b6001600160a01b0381166000908152600260205260408120805460ff191660011790558054908061059183610ace565b90915550506004805460018101825560009182527f8a35acfbc15ff81a39ae7d344fd709f28e8600b4aa8c65c6b64bfe7fe36bd19b0180546001600160a01b0319166001600160a01b03841690811790915560405190917f994a936646fe87ffe4f1e469d3d6aa417d6b855598397f323de5b449f765f0c391a250565b3360009081526002602052604090205460ff1661063d5760405162461bcd60e51b815260040161026090610a3a565b804710156106845760405162461bcd60e51b8152602060048201526014602482015273496e73756666696369656e742062616c616e636560601b6044820152606401610260565b6001600160a01b0382166106cd5760405162461bcd60e51b815260206004820152601060248201526f24b73b30b634b2103932b1b2b4bb32b960811b6044820152606401610260565b3360009081526003602052604090205460ff16156107215760405162461bcd60e51b8152602060048201526011602482015270105b1c9958591e4818dbdb999a5c9b5959607a1b6044820152606401610260565b3360009081526003602052604090819020805460ff19166001179055516001600160a01b038316907f69ca02dd4edd7bf0a4abb9ed3b7af3f14778db5d61921c7dc7cd545266326de2906107789084815260200190565b60405180910390a261078861092b565b156108325760005b6004548110156107f957600060036000600484815481106107b3576107b3610a8b565b6000918252602080832091909101546001600160a01b031683528201929092526040019020805460ff1916911515919091179055806107f181610ace565b915050610790565b506040516001600160a01b0383169082156108fc029083906000818181858888f19350505050158015610830573d6000803e3d6000fd5b505b5050565b3360009081526002602052604090205460ff166108655760405162461bcd60e51b815260040161026090610a3a565b60008111801561087757506000548111155b6108b95760405162461bcd60e51b8152602060048201526013602482015272125b9d985b1a59081c995c5d5a5c995b595b9d606a1b6044820152606401610260565b60018190556040518181527facbdb084c721332ac59f9b8e392196c9eb0e4932862da8eb9beaf0dad4f550da9060200160405180910390a150565b60405134815233907fe1fffcc4923d04b559f4d29a8bfc6cda04eb5b0d3c460751c2402c5c5cc9109c9060200160405180910390a2565b600080805b6004548110156109b057600360006004838154811061095157610951610a8b565b60009182526020808320909101546001600160a01b0316835282019290925260400190205460ff161561099e578161098881610ace565b92505060015482141561099e5760019250505090565b806109a881610ace565b915050610930565b50600091505090565b6000602082840312156109cb57600080fd5b5035919050565b6001600160a01b03811681146109e757600080fd5b50565b6000602082840312156109fc57600080fd5b8135610a07816109d2565b9392505050565b60008060408385031215610a2157600080fd5b8235610a2c816109d2565b946020939093013593505050565b6020808252600a908201526927b7363c9037bbb732b960b11b604082015260600190565b634e487b7160e01b600052601160045260246000fd5b600081610a8357610a83610a5e565b506000190190565b634e487b7160e01b600052603260045260246000fd5b600082821015610ab357610ab3610a5e565b500390565b634e487b7160e01b600052603160045260246000fd5b6000600019821415610ae257610ae2610a5e565b506001019056fea264697066735822122054100c8cd28ee38476bb02f73be44fb1a82fc72e843e8125071ba67b2e9b4e5964736f6c63430008090033",
  "linkReferences": {},
  "deployedLinkReferences": {}
}